:020000040800F2
:1000000000C0002009640008A1610008A761000881
:10001000AD610008B3610008B9610008000000008C
:10002000000000000000000000000000BF610008A8
:10003000CB61000800000000D7610008E361000800
:1000400051640008516400085164000851640008BC
:1000500051640008516400085164000851640008AC
:10006000516400085164000851640008516400089C
:10007000516400085164000851640008516400088C
:10008000516400085164000851640008516400087C
:10009000516400085164000851640008EF610008D1
:1000A000516400085164000851640008516400085C
:1000B000516400085164000851640008516400084C
:1000C000516400085164000851640008516400083C
:1000D00051640008FD610008516400085164000883
:1000E0001D62000851640008516400085164000852
:1000F000516400085164000851640008516400080C
:1001000051640008516400085164000851640008FB
:1001100051640008516400085164000851640008EB
:1001200051640008516400085164000851640008DB
:1001300000000000000000000000000000000000BF
:1001400000000000000000000000000000000000AF
:10015000000000000000000000000000000000009F
:10016000000000000000000000000000000000008F
:10017000000000000000000000000000000000007F
:10018000000000000000000000000000000000006F
:10019000000000000000000000000000000000005F
:1001A000000000000000000000000000000000004F
:1001B000000000000000000000000000000000003F
:1001C000000000000000000000000000000000002F
:1001D000000000000000000000000000000000001F
:0401E0005FF8E0F1F3
:1001E80010B5054C237833B9044B13B10448AFF369
:1001F80000800123237010BD1000002000000000C3
:10020800F082000808B5034B1BB103490348AFF35C
:10021800008008BD0000000014000020F0820008E3
:1002280070B54FF0FF0C4CF4E06C1CEA11541DBF84
:100238001CEA135594EA0C0F95EA0C0F00F0DEF84F
:100248002C4481EA030621EA4C5123EA4C5350EA34
:10025800013518BF52EA033541F4801143F4801385
:1002680038D0A0FB02CE4FF00005E1FB02E506F016
:100278000042E0FB03E54FF00006E1FB03569CF06B
:10028800000F18BF4EF0010EA4F1FF04B6F5007F71
:1002980064F5407404D25FEA4E0E6D4146EB0606E3
:1002A80042EAC62141EA55514FEAC52040EA5E506C
:1002B8004FEACE2EB4F1FD0C88BFBCF5E06F1ED816
:1002C800BEF1004F08BF5FEA500E50F1000041EB4D
:1002D800045170BD06F0004646EA010140EA0200FA
:1002E80081EA0301B4EB5C04C2BFD4EB0C0541EA1C
:1002F800045170BD41F480114FF0000E013C00F331
:10030800AB8014F1360FDEBF002001F0004170BD54
:10031800C4F10004203C35DA0C341BDC04F114046D
:10032800C4F1200500FA05F320FA04F001FA05F2F9
:1003380040EA020001F0004221F0004110EBD370C6
:1003480021FA04F642EB06015EEA430E08BF20EAF2
:10035800D37070BDC4F10C04C4F1200500FA04F395
:1003680020FA05F001FA04F240EA020001F0004127
:1003780010EBD37041F100015EEA430E08BF20EA9A
:10038800D37070BDC4F1200500FA05F24EEA020EE2
:1003980020FA04F301FA05F243EA020321FA04F011
:1003A80001F0004121FA04F220EA020000EBD370C8
:1003B8005EEA430E08BF20EAD37070BD94F0000FC8
:1003C8000FD101F00046400041EB010111F4801FFC
:1003D80008BF013CF7D041EA060195F0000F18BFAD
:1003E800704703F00046520043EB030313F4801FE9
:1003F80008BF013DF7D043EA0603704794EA0C0FA3
:100408000CEA135518BF95EA0C0F0CD050EA4106B8
:1004180018BF52EA4306D1D181EA030101F0004135
:100428004FF0000070BD50EA410606BF104619465D
:1004380052EA430619D094EA0C0F02D150EA013669
:1004480013D195EA0C0F05D152EA03361CBF1046AA
:1004580019460AD181EA030101F0004141F0FE4149
:1004680041F470014FF0000070BD41F0FE4141F4CD
:10047800780170BD81F0004102E000BF83F00043C5
:1004880030B54FEA41044FEA430594EA050F08BF27
:1004980090EA020F1FBF54EA000C55EA020C7FEAEB
:1004A800645C7FEA655C00F0E2804FEA5454D4EB68
:1004B8005555B8BF6D420CDD2C4480EA020281EA32
:1004C800030382EA000083EA010180EA020281EA6A
:1004D8000303362D88BF30BD11F0004F4FEA0131BC
:1004E8004FF4801C4CEA113102D0404261EB4101CB
:1004F80013F0004F4FEA03334CEA133302D0524251
:1005080063EB430394EA050F00F0A780A4F101040C
:10051800D5F1200E0DDB02FA0EFC22FA05F2801846
:1005280041F1000103FA0EF2801843FA05F359412C
:100538000EE0A5F120050EF1200E012A03FA0EFCAB
:1005480028BF4CF0020C43FA05F3C01851EBE371D5
:1005580001F0004507D54FF0000EDCF1000C7EEBF2
:1005680000006EEB0101B1F5801F1BD3B1F5001F30
:100578000CD349085FEA30004FEA3C0C04F101044F
:100588004FEA445212F5800F80F09A80BCF1004F78
:1005980008BF5FEA500C50F1000041EB045141EAFA
:1005A800050130BD5FEA4C0C404141EB0101013CC3
:1005B80028BFB1F5801FE9D291F0000F04BF0146B2
:1005C8000020B1FA81F308BF2033A3F10B03B3F184
:1005D80020020CDA0C3208DD02F1140CC2F10C0214
:1005E80001FA0CF021FA02F10CE002F11402D8BF72
:1005F800C2F1200C01FA02F120FA0CFCDCBF41EA3E
:100608000C019040E41AA2BF01EB0451294330BD0C
:100618006FEA04041F3C1CDA0C340EDC04F11404E9
:10062800C4F1200220FA04F001FA02F340EA0300C0
:1006380021FA04F345EA030130BDC4F10C04C4F106
:10064800200220FA02F001FA04F340EA03002946E6
:1006580030BD21FA04F0294630BD94F0000F83F430
:10066800801306BF81F480110134013D4EE77FEA13
:10067800645C18BF7FEA655C29D094EA050F08BF5F
:1006880090EA020F05D054EA000C04BF1946104640
:1006980030BD91EA030F1EBF0021002030BD5FEA84
:1006A800545C05D14000494128BF41F0004130BDAC
:1006B80014F580043CBF01F5801130BD01F0004500
:1006C80045F0FE4141F470014FF0000030BD7FEA73
:1006D800645C1ABF194610467FEA655C1CBF0B466E
:1006E800024650EA013406BF52EA033591EA030F85
:1006F80041F4002130BD00BF90F0000F04BF00217D
:10070800704730B54FF4806404F132044FF00005AF
:100718004FF0000150E700BF90F0000F04BF002128
:10072800704730B54FF4806404F1320410F000458E
:1007380048BF40424FF000013EE700BF42004FEA89
:10074800E2014FEA31014FEA02701FBF12F07F4306
:1007580093F07F4F81F06051704732F07F4208BFBD
:10076800704793F07F4F04BF41F40021704730B5C4
:100778004FF4607401F0004521F000411CE700BF10
:1007880050EA010208BF704730B54FF000050AE093
:1007980050EA010208BF704730B511F0004502D594
:1007A800404261EB41014FF4806404F132045FEA96
:1007B800915C3FF4D8AE4FF003025FEADC0C18BF3F
:1007C80003325FEADC0C18BF033202EBDC02C2F131
:1007D800200300FA03FC20FA02F001FA03FE40EAC3
:1007E8000E0021FA02F11444BDE600BF4A0011D2FE
:1007F80012F5001211D20DD56FF47873B3EB625273
:100808000ED44FEAC12343F0004343EA505323FA7E
:1008180002F070474FF00000704750EA013002D1F3
:100828004FF0FF3070474FF00000704780B588B038
:1008380000AF07F1100300221A605A609A60DA606C
:10084800424B9B69414A43F0200393613F4B9B69AC
:1008580003F02003FB60FB683C4B9B693B4A43F079
:1008680004039361394B9B6903F00403BB60BB68C5
:10087800364B9B69354A43F010039361334B9B69B0
:1008880003F010037B607B6800224FF480713048CE
:1008980006F046FA002204212E4806F041FA012308
:1008A8003B612D4B7B610223BB6107F110031946A5
:1008B800274806F0A1F820233B61284B7B610123E0
:1008C800BB6107F110031946254806F095F84FF467
:1008D80080733B6101237B610023BB610223FB61C1
:1008E80007F1100319461A4806F086F84FF400433A
:1008F8003B611A4B7B610123BB6107F11003194669
:10090800134806F079F804233B6101237B61002337
:10091800BB610223FB6107F1100319460D4806F07D
:100928006BF801220121172005F0EDFE172005F0D4
:1009380006FF02220121282005F0E5FE282005F007
:10094800FEFE00BF2037BD4680BD00BF001002403C
:10095800000801400014014000001110000021109F
:100968000010014080B483B000AF0346FB800D4BFC
:100978004FF480725A610B4B4FF400725A610A4A65
:10098800FB88D360074B80225A61064B80221A618C
:10099800044B4FF400721A6100BF0C37BD4680BC8F
:1009A800704700BF00100140000C014080B483B0C4
:1009B80000AF0346FB800D4B4FF480721A610B4B5E
:1009C8004FF400725A610A4AFB88D360074B8022B1
:1009D8005A61064B80221A61044B4FF400721A6167
:1009E80000BF0C37BD4680BC704700BF00100140F7
:1009F800000C014080B582B000AF1D4B4FF088322B
:100A08001A601B4B4FF088325A60194B0022DA608B
:100A1800184B4FF480721A61164B4FF400725A61EA
:100A2800144B40225A61144B9B8848F68912934212
:100A380002D1012005F06CFD0D4B9B68FB800D4B2E
:100A480040221A610B4B4FF400721A61084B4FF0A9
:100A580033321A60064B4FF033325A60044B4FF66C
:100A6800FF72DA60FB8818460837BD4680BD00BFB4
:100A7800000C0140001001403000002080B582B019
:100A880000AF03460A46FB801346BB80FB88184626
:100A9800FFF768FF0C4B4FF480721A610A4B4FF452
:100AA80000725A61094ABB88D360074B80225A6199
:100AB800054B80221A61044B4FF400721A6100BF83
:100AC8000837BD4680BD00BF00100140000C014042
:100AD80080B582B000AF0346FB80FB881846FFF75D
:100AE80041FFFFF787FF034618460837BD4680BD1C
:100AF80080B500AF034B1B891846FFF733FF00BFD3
:100B080080BD00BF3000002080B582B000AF034632
:100B18000A46FB801346BB80734B9B8849F24132DF
:100B2800934205D0704B9B8845F21032934264D1B2
:100B38006D4B5B891846FFF715FF6C4B4FF48072BD
:100B48001A616A4B4FF400725A61FB881B0A9AB209
:100B5800674BDA60654B80225A61644B80221A61C8
:100B6800624B4FF400721A61604B4FF480721A6145
:100B78005E4B4FF400725A61FB885D4ADBB2D3606A
:100B88005A4B80225A61594B80221A61574B4FF4B5
:100B980000721A61544B9B891846FFF7E3FE534BCA
:100BA8004FF480721A61514B4FF400725A61BB883E
:100BB8001B0A9AB24E4BDA604C4B80225A614B4B5F
:100BC80080221A61494B4FF400721A61474B4FF467
:100BD80080721A61454B4FF400725A61BB88444ACF
:100BE800DBB2D360414B80225A61404B80221A61AC
:100BF8003E4B4FF400721A6148E23B4B9B8846F625
:100C08000402934276D1384B9B79012B06D1364B9F
:100C18001A88FB88D31A9BB2013BFB80324B5B8955
:100C28001846FFF79FFE314B4FF480721A612F4B25
:100C38004FF400725A61FB881B0A9AB22C4BDA6097
:100C48002A4B80225A61294B80221A61274B4FF484
:100C580000721A61254B4FF480721A61234B4FF4CE
:100C680000725A61FB88224ADBB2D3601F4B802294
:100C78005A611E4B80221A611C4B4FF400721A6194
:100C8800194B9B891846FFF76DFE184B4FF480727D
:100C98001A61164B4FF400725A61BB881B0A9AB24C
:100CA800134BDA60114B80225A61104B80221A6173
:100CB8000E4B4FF400721A610C4B4FF480721A619C
:100CC8000A4B4FF400725A61BB88094ADBB2D36001
:100CD800064B80225A61054B80221A61034B4FF460
:100CE80000721A61D2E100BF3000002000100140FC
:100CF800000C0140994B9B8841F66312934240F0E7
:100D08003381964B9B79002B63D1944B1A88FB88CF
:100D1800D31A9BB2013BFB80904B5B891846FFF7C7
:100D280021FE8F4B4FF480721A618D4B4FF4007285
:100D38005A618C4B0022DA60894B80225A61884BB9
:100D480080221A61864B4FF400721A61844B4FF46B
:100D580080721A61824B4FF400725A61814B0022F3
:100D6800DA607F4B80225A617D4B80221A617C4B6E
:100D78004FF400721A617A4B4FF480721A61784B03
:100D88004FF400725A61FB881B0A9AB2754BDA60FD
:100D9800734B80225A61724B80221A61704B4FF458
:100DA80000721A616E4B4FF480721A616C4B4FF4EB
:100DB80000725A61FB886B4ADBB2D360684B8022B1
:100DC8005A61674B80221A61654B4FF400721A61B1
:100DD80061E0624B5B891846FFF7C4FD604B4FF436
:100DE80080721A615E4B4FF400725A61FB881B0ACD
:100DF8009AB25C4BDA605A4B80225A61584B802277
:100E08001A61574B4FF400721A61554B4FF48072B8
:100E18001A61534B4FF400725A61FB88514ADBB296
:100E2800D3604F4B80225A614D4B80221A614C4B44
:100E38004FF400721A614A4B4FF480721A61484BA2
:100E48004FF400725A61454B1B88013B1A12454BFF
:100E5800DA60434B80225A61414B80221A61404B31
:100E68004FF400721A613E4B4FF480721A613C4B8A
:100E78004FF400725A61394B1B88013B394ADBB287
:100E8800D360374B80225A61354B80221A61344B2C
:100E98004FF400721A61314B9B891846FFF762FDC7
:100EA8002F4B4FF480721A612D4B4FF400725A6128
:100EB800BB881B0A9AB22B4BDA60294B80225A61F5
:100EC800274B80221A61264B4FF400721A61244B7B
:100ED8004FF480721A61224B4FF400725A61BB883A
:100EE800204ADBB2D3601E4B80225A611C4B802201
:100EF8001A611B4B4FF400721A61194B4FF4807240
:100F08001A61174B4FF400725A61144B5B88013B0E
:100F18001A12144BDA60124B80225A61104B80224D
:100F28001A610F4B4FF400721A610D4B4FF4807227
:100F38001A610B4B4FF400725A61084B5B88013BF6
:100F4800084ADBB2D360064B80225A61044B8022E8
:100F58001A61034B4FF400721A6197E030000020C9
:100F680000100140000C01404A4B9B8845F210528A
:100F7800934272D1474B5B891846FFF7F3FC464B07
:100F88004FF480721A61444B4FF400725A61FB8827
:100F98001B0A9AB2414BDA603F4B80225A613E4BA2
:100FA80080221A613C4B4FF400721A61394B5B89FD
:100FB80001339BB21846FFF7D5FC374B4FF48072CC
:100FC8001A61354B4FF400725A61FB88334ADBB221
:100FD800D360314B80225A612F4B80221A612E4BED
:100FE8004FF400721A612B4B9B891846FFF7BAFC25
:100FF800294B4FF480721A61274B4FF400725A61E3
:10100800BB881B0A9AB2254BDA60234B80225A61AF
:10101800214B80221A61204B4FF400721A611D4B3C
:101028009B8901339BB21846FFF79CFC1A4B4FF47F
:1010380080721A61184B4FF400725A61BB88174AC4
:10104800DBB2D360144B80225A61134B80221A61A1
:10105800114B4FF400721A6118E00E4B9B79012B6B
:1010680006D10C4B1A88FB88D31A9BB2013BFB8034
:10107800084B5B89FA8811461846FFF7FFFC054BB9
:101088009B89BA8811461846FFF7F8FC00BF083755
:10109800BD4680BD3000002000100140000C01401A
:1010A80080B584B000AF0346FB710023FB810023A9
:1010B800BB81784B9B79012B0BD1764B9B8846F6ED
:1010C8000402934205D0734B9B8841F66312934206
:1010D80009D1704B9B79002B34D16E4B9B8841F61C
:1010E800631293422ED1FB79072B2BD801A252F819
:1010F80023F000BF1D110008231100082911000862
:101108002F110008351100083B1100084111000893
:10111800471100080623FB7114E00723FB7111E057
:101128000423FB710EE00523FB710BE00123FB7127
:1011380008E00023FB7105E00323FB7102E00223B2
:10114800FB7100BF534B9B8849F24132934218D040
:10115800504B9B8846F60402934212D04D4B9B8815
:1011680045F2103293420CD04A4B9B8845F21052FC
:10117800934206D0474B9B8841F66312934240F056
:101188005082FB79072B36D801A252F823F000BF12
:10119800FF110008B9110008C3110008CD1100089B
:1011A800D7110008E1110008EB110008F51100083B
:1011B800FB8943F08003FB811DE0FB8943F040037A
:1011C800FB8118E0FB8943F0C003FB8113E0FB8936
:1011D80043F02003FB810EE0FB8943F06003FB81B1
:1011E80009E0FB8943F0A003FB8104E0FB8943F09D
:1011F800E003FB8100BF274B9B8845F210529342C6
:1012080003D14FF45853BB8101E03623BB81214BF6
:101218009B8845F2103293420FD01E4B9B8845F2B3
:101228001052934209D01B4B9B8841F6631293429C
:1012380003D0FB8943F00803FB81164B9B8846F6D5
:101248000402934203D1FB8943F00203FB81FA892C
:10125800BB8911461846FFF711FC0E4B9B8841F6D7
:101268006312934228D0FB8903F02003002B13D08C
:10127800084B1A88074B5B889A421DD2054B1B887E
:101288007B81044B5A88034B1A80024A7B8953801E
:1012980012E000BF300000207F4B1A887E4B5B882D
:1012A8009A4209D97C4B1B887B817B4B5A887A4BA5
:1012B8001A80794A7B895380774B9B8845F2105274
:1012C800934240F0EF80744B5B891846FFF74AFB66
:1012D800724B4FF480721A61704B4FF400725A616E
:1012E8006F4B0022DA606D4B80225A616B4B802273
:1012F8001A616A4B4FF400721A61674B5B890133BC
:101308009BB21846FFF72EFB644B4FF480721A61AC
:10131800624B4FF400725A61614B0022DA605F4BF6
:1013280080225A615D4B80221A615C4B4FF4007237
:101338001A61594B5B8902339BB21846FFF712FBBF
:10134800564B4FF480721A61544B4FF400725A6135
:10135800514B1B88013B1A12514BDA604F4B8022CC
:101368005A614E4B80221A614C4B4FF400721A613D
:10137800494B5B8903339BB21846FFF7F3FA474B97
:101388004FF480721A61454B4FF400725A61424B18
:101398001B88013B424ADBB2D360404B80225A6132
:1013A8003E4B80221A613D4B4FF400721A613A4B52
:1013B8009B891846FFF7D6FA384B4FF480721A61AA
:1013C800364B4FF400725A61354B0022DA60334BCA
:1013D80080225A61314B80221A61304B4FF40072DF
:1013E8001A612D4B9B8901339BB21846FFF7BAFA55
:1013F8002A4B4FF480721A61284B4FF400725A61DD
:10140800274B0022DA60254B80225A61234B802229
:101418001A61224B4FF400721A611F4B9B890233E9
:101428009BB21846FFF79EFA1C4B4FF480721A6164
:101438001A4B4FF400725A61174B5B88013B1A1222
:10144800174BDA60154B80225A61144B80221A61BF
:10145800124B4FF400721A610F4B9B8903339BB2F6
:101468001846FFF77FFA0D4B4FF480721A610B4B49
:101478004FF400725A61084B5B88013B084ADBB2A3
:10148800D360064B80225A61044B80221A61034BB9
:101498004FF400721A610BE1300000200010014087
:1014A800000C0140844B5B891846FFF75BFA834BBD
:1014B8004FF480721A61814B4FF400725A61804B6D
:1014C8000022DA607D4B80225A617C4B80221A61AF
:1014D8007A4B4FF400721A61784B4FF480721A619C
:1014E800764B4FF400725A61754B0022DA60734BE9
:1014F80080225A61714B80221A61704B4FF400723E
:101508001A616E4B4FF480721A616C4B4FF4007283
:101518005A61694B1B88013B1A12694BDA60674BA9
:1015280080225A61654B80221A61644B4FF4007225
:101538001A61624B4FF480721A61604B4FF400726B
:101548005A615D4B1B88013B5D4ADBB2D3605B4B44
:1015580080225A61594B80221A61584B4FF400720D
:101568001A61554B9B891846FFF7FCF9534B4FF40A
:1015780080721A61514B4FF400725A61504B00222D
:10158800DA604E4B80225A614C4B80221A614B4BD9
:101598004FF400721A61494B4FF480721A61474B3D
:1015A8004FF400725A61464B0022DA60434B8022A6
:1015B8005A61424B80221A61404B4FF400721A6103
:1015C8003E4B4FF480721A613C4B4FF400725A61E3
:1015D800394B5B88013B1A12394BDA60374B802252
:1015E8005A61364B80221A61344B4FF400721A61EB
:1015F800324B4FF480721A61304B4FF400725A61CB
:101608002D4B5B88013B2E4ADBB2D3602B4B8022EB
:101618005A612A4B80221A61284B4FF400721A61D2
:1016280046E0FB79072B36D801A252F823F000BF19
:1016380059160008631600086D1600089F16000862
:1016480077160008811600088B1600089516000802
:10165800FB8943F03003FB811DE0FB8943F0100355
:10166800FB8118E0FB8943F02003FB8113E0FB8931
:1016780043F03803FB810EE0FB8943F02803FB812C
:1016880009E0FB8943F01803FB8104E0FB8943F080
:101698000803FB8100BF0323BB81FB8943F480530C
:1016A800FB81FA89BB8911461846FFF7E7F900BFA5
:1016B80000BF1037BD4680BD30000020001001403B
:1016C800000C014080B582B000AF0346FB800B469A
:1016D800BB8013467B80754B9B8849F2413293420D
:1016E80005D0724B9B8845F21032934264D16F4B00
:1016F8005B891846FFF736F96D4B4FF480721A6113
:101708006B4B4FF400725A61FB881B0A9AB2694B03
:10171800DA60674B80225A61654B80221A61644BFC
:101728004FF400721A61624B4FF480721A61604B79
:101738004FF400725A61FB885E4ADBB2D3605C4B9F
:1017480080225A615A4B80221A61594B4FF4007219
:101758001A61564B9B891846FFF704F9544B4FF40E
:1017680080721A61524B4FF400725A61BB881B0A8F
:101778009AB2504BDA604E4B80225A614C4B802211
:101788001A614B4B4FF400721A61494B4FF4807247
:101798001A61474B4FF400725A61BB88454ADBB265
:1017A800D360434B80225A61414B80221A61404BDF
:1017B8004FF400721A61E6E13C4B9B8845F21052E7
:1017C800934279D1394B5B891846FFF7CBF8384BF0
:1017D8004FF480721A61364B4FF400725A61FB88DD
:1017E8001B0A9AB2334BDA60314B80225A61304B74
:1017F80080221A612E4B4FF400721A612B4B5B89C1
:1018080001339BB21846FFF7ADF8294B4FF48072AD
:101818001A61274B4FF400725A61FB88254ADBB2E4
:10182800D360234B80225A61214B80221A61204BBE
:101838004FF400721A611D4B9B891846FFF792F806
:101848001B4B4FF480721A61194B4FF400725A61A6
:10185800BB881B0A9AB2174BDA60154B80225A6173
:10186800134B80221A61124B4FF400721A610F4B0E
:101878009B8901339BB21846FFF774F80C4B4FF461
:1018880080721A610A4B4FF400725A61BB88094A88
:10189800DBB2D360064B80225A61054B80221A6165
:1018A800034B4FF400721A616DE100BF3000002055
:1018B80000100140000C0140684B9B8841F6631200
:1018C800934240F0D180654B9B79002B06D1634B46
:1018D8001A88FB88D31A9BB2013BFB805F4B5B895C
:1018E8001846FFF73FF85E4B4FF480721A615C4B65
:1018F8004FF400725A61FB881B0A9AB2594BDA609E
:10190800574B80225A61564B80221A61544B4FF430
:1019180000721A61524B4FF480721A61504B4FF4A7
:1019280000725A61FB884F4ADBB2D3604C4B80226D
:101938005A614B4B80221A61494B4FF400721A616D
:10194800474B4FF480721A61454B4FF400725A614D
:10195800FB881B0A9AB2434BDA60414B80225A61DA
:101968003F4B80221A613E4B4FF400721A613C4B88
:101978004FF480721A613A4B4FF400725A61FB8837
:10198800384ADBB2D360364B80225A61344B80220E
:101998001A61334B4FF400721A61304B9B89184619
:1019A800FEF7E0FF2E4B4FF480721A612C4B4FF478
:1019B80000725A61BB881B0A9AB22A4BDA60284B1C
:1019C80080225A61264B80221A61254B4FF40072FF
:1019D8001A61234B4FF480721A61214B4FF4007245
:1019E8005A61BB881F4ADBB2D3601D4B80225A6103
:1019F8001B4B80221A611A4B4FF400721A61184B64
:101A08004FF480721A61164B4FF400725A61BB880A
:101A18001B0A9AB2134BDA60114B80225A61104BA1
:101A280080221A610E4B4FF400721A610C4B4FF46E
:101A380080721A610A4B4FF400725A61BB88094AD6
:101A4800DBB2D360064B80225A61054B80221A61B3
:101A5800034B4FF400721A6195E000BF300000207C
:101A680000100140000C01405E4B9B8846F60402C2
:101A780093426FD15B4B9B79012B06D1594B1A8846
:101A8800FB88D31A9BB2013BFB80564B5B891846F7
:101A9800FEF768FF544B4FF480721A61524B4FF4B3
:101AA80000725A61FB881B0A9AB2504BDA604E4B9F
:101AB80080225A614C4B80221A614B4B4FF40072C2
:101AC8001A61494B4FF480721A61474B4FF4007208
:101AD8005A61FB88454ADBB2D360434B80225A6186
:101AE800414B80221A61404B4FF400721A613D4B02
:101AF8009B891846FEF736FF3B4B4FF480721A61FC
:101B0800394B4FF400725A61BB881B0A9AB2374BA3
:101B1800DA60354B80225A61334B80221A61324B8E
:101B28004FF400721A61304B4FF480721A612E4BD9
:101B38004FF400725A61BB882C4ADBB2D3602A4B3F
:101B480080225A61284B80221A61274B4FF4007279
:101B58001A6118E0234B9B79012B06D1214B1A8877
:101B6800FB88D31A9BB2013BFB801E4B5B89FA882A
:101B780011461846FEF782FF1A4B9B89BA88114610
:101B88001846FEF77BFF184B4FF480725A61164BCC
:101B98004FF400725A61134B1A89144BDA60124BD6
:101BA80080225A61104B80221A610F4B4FF4007249
:101BB8001A610D4B4FF480721A610B4B4FF400728F
:101BC8005A610A4A7B88D360074B80225A61064BC8
:101BD80080221A61044B4FF400721A6100BF083763
:101BE800BD4680BD3000002000100140000C0140BF
:101BF80090B583B000AF0346FB71BE20FEF7B2FE7E
:101C08004B4B4FF480721A61494B4FF400725A6182
:101C1800484B0522DA60464B80225A61444B8022A9
:101C28001A61434B4FF400721A61414B4FF48072B2
:101C38001A613F4B4FF400725A61FB791846FEF760
:101C48006BFD39A3D3E90023FEF7EAFA02460B46F7
:101C5800384C10461946FEF7C9FD0346E360344B7D
:101C680080225A61324B80221A61314B4FF4007244
:101C78001A612F4B4FF480721A612D4B4FF400728A
:101C88005A612C4B0122DA60294B80225A61284B79
:101C980080221A61264B4FF400721A61244B4FF4CC
:101CA80080721A61224B4FF400725A61214BFF2255
:101CB800DA601F4B80225A611D4B80221A611C4B2F
:101CC8004FF400721A611A4B4FF480721A61184B64
:101CD8004FF400725A61174B0022DA60144B8022CD
:101CE8005A61134B80221A61114B4FF400721A612A
:101CF8000F4B4FF480721A610D4B4FF400725A610A
:101D08000C4B0022DA600A4B80225A61084B802271
:101D18001A61074B4FF400721A6100BF0C37BD46B9
:101D280090BD00BFAFF300806666666666660440D5
:101D380000100140000C014080B582B000AF03469E
:101D4800FB71FB79002B77D1804B00229A717F4B76
:101D5800F0221A807D4B4FF4A0725A807B4B9B88EF
:101D680049F2413293420BD0784B9B8846F60402E5
:101D7800934205D0754B9B8845F2103293421ED191
:101D8800724B2C221A81714B2A225A816F4B2B22BB
:101D98009A816E4B9B8846F60402934206D06B4BA1
:101DA8009B8845F21032934240F0C780674B4FF44E
:101DB800A0721A80654B4FF4F0725A80BDE0634BF5
:101DC8009B8845F21052934214D1604B4FF4305225
:101DD8001A815E4B4FF428525A815C4B4FF42C52B7
:101DE8009A815A4B4FF4F0721A80584B4FF448724C
:101DF8005A80A3E0554B9B8841F66312934211D158
:101E0800524B2C221A81514B2B225A814F4B2A229A
:101E18009A814E4B4FF4F0721A804C4B4FF4487233
:101E28005A808BE0494B22221A81484B20225A8142
:101E3800464B21229A8181E0444B01229A71434BFF
:101E48004FF4A0721A80414BF0225A803F4B9B8876
:101E580049F24132934205D03C4B9B8845F21032FF
:101E6800934209D1394B2C221A81384B2A225A81A4
:101E7800364B2B229A814BE0344B9B8846F6040262
:101E8800934209D1314B2C221A81304B2B225A8193
:101E98002E4B2A229A813BE02C4B9B8845F210520C
:101EA800934214D1294B4FF430521A81274B4FF4E7
:101EB80028525A81254B4FF42C529A81234B4FF4C8
:101EC80048721A80214B4FF4F0725A8020E01F4B61
:101ED8009B8841F66312934211D11C4B2C221A8124
:101EE8001A4B2A225A81194B2B229A81174B4FF4ED
:101EF80048721A80154B4FF4F0725A8008E0134B61
:101F080022221A81114B21225A81104B20229A81B8
:101F18000E4B9B8846F60402934205D00B4B9B88D8
:101F280045F21032934209D1084B4FF4F0721A80EF
:101F3800064B4FF4A0725A8000E000BF0020FFF764
:101F4800AFF800BF0837BD4680BD00BF3000002095
:101F580080B586B000AF904B9B698F4A43F0080369
:101F680093618D4B9B6903F008037B607B688A4B08
:101F78009B69894A43F010039361874B9B6903F07F
:101F880010033B603B684FF4F863BB600123FB60C0
:101F980001233B6103237B6107F1080319467F484E
:101FA80004F02AFD4FF6FF73BB6007F108031946DA
:101FB8007B4804F021FD322004F0AAFA0121002018
:101FC800FEF75CFD322004F0A3FA0020FEF780FD46
:101FD80003461A46734B9A80724B9B88FE2B0BD98B
:101FE800704B9B884FF6FF72934205D06D4B9B88D0
:101FF800B3F5134F40F0C880D320FEF7B3FCFEF7CB
:10200800F9FCFEF7F7FCFEF7F5FC03461A46654BAC
:102018009A80644B9B881B029AB2624B9A80FEF7A7
:10202800E9FC03461A465F4B9B8813439AB25D4B03
:102038009A805C4B9B8849F24132934200F0A4801D
:10204800BF20FEF78FFCFEF7D5FCFEF7D3FCFEF7AA
:10205800D1FCFEF7CFFC03461A46524B9A80514BEF
:102068009B881B029AB24F4B9A80FEF7C3FC03462B
:102078001A464C4B9B8813439AB24A4B9A80494B59
:102088009B8846F6040293427ED0D420FEF76AFC71
:10209800FEF7B0FCFEF7AEFCFEF7ACFC03461A46B2
:1020A800404B9A803F4B9B881B029AB23D4B9A80CB
:1020B800FEF7A0FC03461A463A4B9B8813439AB294
:1020C800384B9A80374B9B8845F2103293425BD04D
:1020D8004FF45A40FEF746FCFEF78CFC4FF45B4089
:1020E800FEF740FCFEF786FC03461A462D4B9A8005
:1020F8002C4B9B881B029AB22A4B9A804FF45C4067
:10210800FEF730FCFEF776FC03461A46254B9B8803
:1021180013439AB2234B9A80224B9B88B3F5004F06
:1021280003D1204B45F210529A801E4B9B8845F2F2
:102138001052934228D0A120FEF714FCFEF75AFC57
:1021480003461A46174B9A80FEF754FC03461A4674
:10215800144B9A80134B9B881B029AB2114B9A809E
:10216800FEF748FC03461A460E4B9B8813439AB267
:102178000C4B9A800B4B9B8845F26172934203D1BA
:10218800084B41F663129A80064B9B8849F241320C
:10219800934240F01F8107E0001002400010014008
:1021A800000C014030000020CF20FEF7DBFB0020B0
:1021B800FEF7FCFBC120FEF7F9FB3020FEF7F6FB2B
:1021C800ED20FEF7CFFB6420FEF7F0FB0320FEF7BF
:1021D800EDFB1220FEF7EAFB8120FEF7E7FBE82083
:1021E800FEF7C0FB8520FEF7E1FB1020FEF7DEFBC3
:1021F8007A20FEF7DBFBCB20FEF7B4FB3920FEF795
:10220800D5FB2C20FEF7D2FB0020FEF7CFFB3420B5
:10221800FEF7CCFB0220FEF7C9FBF720FEF7A2FB76
:102228002020FEF7C3FBEA20FEF79CFB0020FEF708
:10223800BDFB0020FEF7BAFBC020FEF793FB1B2076
:10224800FEF7B4FBC120FEF78DFB0120FEF7AEFBC5
:10225800C520FEF787FB3020FEF7A8FB3020FEF7ED
:10226800A5FBC720FEF77EFBB720FEF79FFB3620B5
:10227800FEF778FB4820FEF799FB3A20FEF772FB41
:102288005520FEF793FBB120FEF76CFB0020FEF70C
:102298008DFB1A20FEF78AFBB620FEF763FB0A20A7
:1022A800FEF784FBA220FEF781FBF220FEF75AFB23
:1022B8000020FEF77BFB2620FEF754FB0120FEF7EB
:1022C80075FBE020FEF74EFB0F20FEF76FFB2A2080
:1022D800FEF76CFB2820FEF769FB0820FEF766FB7B
:1022E8000E20FEF763FB0820FEF760FB5420FEF784
:1022F8005DFBA920FEF75AFB4320FEF757FB0A2097
:10230800FEF754FB0F20FEF751FB0020FEF74EFBB3
:102318000020FEF74BFB0020FEF748FB0020FEF7ED
:1023280045FBE120FEF71EFB0020FEF73FFB1520D2
:10233800FEF73CFB1720FEF739FB0720FEF736FBBC
:102348001120FEF733FB0620FEF730FB2B20FEF7AB
:102358002DFB5620FEF72AFB3C20FEF727FB052025
:10236800FEF724FB1020FEF721FB0F20FEF71EFBD3
:102378003F20FEF71BFB3F20FEF718FB0F20FEF760
:1023880015FB2B20FEF7EEFA0020FEF70FFB0020CE
:10239800FEF70CFB0120FEF709FB3F20FEF706FBCA
:1023A8002A20FEF7DFFA0020FEF700FB0020FEF7E8
:1023B800FDFA0020FEF7FAFAEF20FEF7F7FA1120EF
:1023C800FEF7D0FA782004F0A3F82920FEF7CAFA1D
:1023D80003F0D8BC584B9B8846F60402934240F061
:1023E800AD801120FEF7BEFA142004F091F8D02039
:1023F800FEF7B8FA0720FEF7D9FA4220FEF7D6FA18
:102408001D20FEF7D3FAD120FEF7ACFA0020FEF724
:10241800CDFA1A20FEF7CAFA0920FEF7C7FAD22029
:10242800FEF7A0FA0120FEF7C1FA2220FEF7BEFA55
:10243800C020FEF797FA1020FEF7B8FA3B20FEF707
:10244800B5FA0020FEF7B2FA0220FEF7AFFA112023
:10245800FEF7ACFAC520FEF785FA0320FEF7A6FAC8
:10246800C820FEF77FFA0020FEF7A0FA2520FEF725
:102478009DFA2120FEF79AFA0520FEF797FA002028
:10248800FEF794FA0A20FEF791FA6520FEF78EFA15
:102498002520FEF78BFA7720FEF788FA5020FEF702
:1024A80085FA0F20FEF782FA0020FEF77FFAF8205F
:1024B800FEF758FA0120FEF779FAFE20FEF752FAE5
:1024C8000020FEF773FA0220FEF770FA2020FEF7CC
:1024D80049FA3620FEF746FA0820FEF767FA3A204E
:1024E800FEF740FA5520FEF761FA2B20FEF73AFA7C
:1024F8000020FEF75BFA0020FEF758FA0120FEF7ED
:1025080055FA3F20FEF752FA2A20FEF72BFA002050
:10251800FEF74CFA0020FEF749FA0120FEF746FACA
:10252800DF20FEF743FA782003F0F2FF2920FEF7B8
:1025380019FA03F027BC00BF30000020034B9B882A
:1025480045F21032934240F07C8701E030000020D1
:10255800ED20FEF707FA0120FEF728FAFE20FEF725
:1025680025FAEE20FEF7FEF9DE20FEF71FFA2120FD
:10257800FEF71CFAF120FEF7F5F90120FEF716FA2E
:10258800DF20FEF7EFF91020FEF710FAC420FEF75F
:10259800E9F98F20FEF70AFAC620FEF7E3F90020D2
:1025A800FEF704FAE220FEF701FAE220FEF7FEF950
:1025B800E220FEF7FBF9BF20FEF7D4F9AA20FEF7C8
:1025C800F5F9B020FEF7CEF90D20FEF7EFF900205F
:1025D800FEF7ECF90D20FEF7E9F90020FEF7E6F921
:1025E8001120FEF7E3F90020FEF7E0F91920FEF7C5
:1025F800DDF90020FEF7DAF92120FEF7D7F90020EF
:10260800FEF7D4F92D20FEF7D1F90020FEF7CEF918
:102618003D20FEF7CBF90020FEF7C8F95D20FEF754
:10262800C5F90020FEF7C2F95D20FEF7BFF90020CA
:10263800FEF7BCF9B120FEF795F98020FEF7B6F950
:102648000020FEF7B3F98B20FEF7B0F90020FEF763
:10265800ADF99620FEF7AAF90020FEF7A7F9B220F7
:10266800FEF780F90020FEF7A1F90020FEF79EF999
:102678000220FEF79BF90020FEF798F90320FEF7E9
:1026880095F90020FEF792F9B320FEF76BF90020C8
:10269800FEF78CF90020FEF789F90020FEF786F98D
:1026A8000020FEF783F90020FEF780F90020FEF7EE
:1026B8007DF90020FEF77AF90020FEF777F900206F
:1026C800FEF774F90020FEF771F90020FEF76EF9A5
:1026D8000020FEF76BF90020FEF768F90020FEF7EE
:1026E80065F90020FEF762F90020FEF75FF9002087
:1026F800FEF75CF90020FEF759F90020FEF756F9BD
:102708000020FEF753F90020FEF750F90020FEF7ED
:102718004DF90020FEF74AF90020FEF747F9B420EA
:10272800FEF720F98B20FEF741F90020FEF73EF96D
:102738009620FEF73BF90020FEF738F9A120FEF7B6
:1027480035F90020FEF732F9B520FEF70BF9022023
:10275800FEF72CF90020FEF729F90320FEF726F9E9
:102768000020FEF723F90420FEF720F90020FEF7E9
:102778001DF9B620FEF7F6F80020FEF717F900203D
:10278800FEF714F9B720FEF7EDF80020FEF70EF972
:102798000020FEF70BF93F20FEF708F90020FEF7AE
:1027A80005F95E20FEF702F90020FEF7FFF8642025
:1027B800FEF7FCF80020FEF7F9F88C20FEF7F6F893
:1027C8000020FEF7F3F8AC20FEF7F0F80020FEF743
:1027D800EDF8DC20FEF7EAF80020FEF7E7F87020B5
:1027E800FEF7E4F80020FEF7E1F89020FEF7DEF8A7
:1027F8000020FEF7DBF8EB20FEF7D8F80020FEF704
:10280800D5F8DC20FEF7D2F80020FEF7CFF8B82084
:10281800FEF7A8F80020FEF7C9F80020FEF7C6F872
:102828000020FEF7C3F80020FEF7C0F80020FEF7EE
:10283800BDF80020FEF7BAF80020FEF7B7F8002030
:10284800FEF7B4F8BA20FEF78DF82420FEF7AEF8AC
:102858000020FEF7ABF80020FEF7A8F80020FEF7EE
:10286800A5F8C120FEF77EF82020FEF79FF800208B
:10287800FEF79CF85420FEF799F80020FEF796F82A
:10288800FF20FEF793F80020FEF790F8C220FEF72D
:1028980069F80A20FEF78AF80020FEF787F8042076
:1028A800FEF784F80020FEF781F8C320FEF75AF8F7
:1028B8003C20FEF77BF80020FEF778F83A20FEF778
:1028C80075F80020FEF772F83920FEF76FF800203F
:1028D800FEF76CF83720FEF769F80020FEF766F877
:1028E8003C20FEF763F80020FEF760F83620FEF77C
:1028F8005DF80020FEF75AF83220FEF757F800205E
:10290800FEF754F82F20FEF751F80020FEF74EF896
:102918002C20FEF74BF80020FEF748F82920FEF798
:1029280045F80020FEF742F82620FEF73FF8002081
:10293800FEF73CF82420FEF739F80020FEF736F8B9
:102948002420FEF733F80020FEF730F82320FEF7A6
:102958002DF80020FEF72AF83C20FEF727F8002083
:10296800FEF724F83620FEF721F80020FEF71EF8BF
:102978003220FEF71BF80020FEF718F82F20FEF78C
:1029880015F80020FEF712F82C20FEF70FF80020AB
:10299800FEF70CF82920FEF709F80020FEF706F8E4
:1029A8002620FEF703F80020FEF700F82420FDF7A4
:1029B800FDFF0020FDF7FAFF2420FDF7F7FF0020B8
:1029C800FDF7F4FF2320FDF7F1FF0020FDF7EEFFF0
:1029D800C420FDF7C7FF6220FDF7E8FF0020FDF7E0
:1029E800E5FF0520FDF7E2FF0020FDF7DFFF84206B
:1029F800FDF7DCFF0020FDF7D9FFF020FDF7D6FF3B
:102A08000020FDF7D3FF1820FDF7D0FF0020FDF7C9
:102A1800CDFFA420FDF7CAFF0020FDF7C7FF18204F
:102A2800FDF7C4FF0020FDF7C1FF5020FDF7BEFFF2
:102A38000020FDF7BBFF0C20FDF7B8FF0020FDF7D5
:102A4800B5FF1720FDF7B2FF0020FDF7AFFF952077
:102A5800FDF7ACFF0020FDF7A9FFF320FDF7A6FF67
:102A68000020FDF7A3FFE620FDF7A0FF0020FDF7FB
:102A78009DFFC520FDF776FF3220FDF797FF002068
:102A8800FDF794FF4420FDF791FF0020FDF78EFF2E
:102A98006520FDF78BFF0020FDF788FF7620FDF706
:102AA80085FF0020FDF782FF8820FDF77FFF0020CB
:102AB800FDF77CFFC620FDF755FF2020FDF776FFC8
:102AC8000020FDF773FF1720FDF770FF0020FDF7CA
:102AD8006DFF0120FDF76AFF0020FDF767FFC720A3
:102AE800FDF740FF0020FDF761FF0020FDF75EFFC6
:102AF8000020FDF75BFF0020FDF758FFC820FDF719
:102B080031FF0020FDF752FF0020FDF74FFF0020A6
:102B1800FDF74CFF0020FDF749FFC920FDF722FF14
:102B28000020FDF743FF0020FDF740FF0020FDF7E0
:102B38003DFF0020FDF73AFF0020FDF737FF00209A
:102B4800FDF734FF0020FDF731FF0020FDF72EFFD1
:102B58000020FDF72BFF0020FDF728FF0020FDF7E0
:102B680025FF0020FDF722FF0020FDF71FFF0020B2
:102B7800FDF71CFF0020FDF719FF0020FDF716FFE9
:102B8800E020FDF7EFFE1620FDF710FF0020FDF70F
:102B98000DFF1C20FDF70AFF0020FDF707FF21208D
:102BA800FDF704FF0020FDF701FF3620FDF7FEFECC
:102BB8000020FDF7FBFE4620FDF7F8FE0020FDF79C
:102BC800F5FE5220FDF7F2FE0020FDF7EFFE64202F
:102BD800FDF7ECFE0020FDF7E9FE7A20FDF7E6FEA2
:102BE8000020FDF7E3FE8B20FDF7E0FE0020FDF757
:102BF800DDFE9920FDF7DAFE0020FDF7D7FEA820BC
:102C0800FDF7D4FE0020FDF7D1FEB920FDF7CEFE7A
:102C18000020FDF7CBFEC420FDF7C8FE0020FDF71D
:102C2800C5FECA20FDF7C2FE0020FDF7BFFED22078
:102C3800FDF7BCFE0020FDF7B9FED920FDF7B6FE72
:102C48000020FDF7B3FEE020FDF7B0FE0020FDF701
:102C5800ADFEF320FDF7AAFE0020FDF7A7FEE12058
:102C6800FDF780FE1620FDF7A1FE0020FDF79EFE71
:102C78001C20FDF79BFE0020FDF798FE2220FDF7A3
:102C880095FE0020FDF792FE3620FDF78FFE00200E
:102C9800FDF78CFE4520FDF789FE0020FDF786FE36
:102CA8005220FDF783FE0020FDF780FE6420FDF72B
:102CB8007DFE0020FDF77AFE7A20FDF777FE0020E2
:102CC800FDF774FE8B20FDF771FE0020FDF76EFE08
:102CD8009920FDF76BFE0020FDF768FEA820FDF7A0
:102CE80065FE0020FDF762FEB920FDF75FFE0020BB
:102CF800FDF75CFEC420FDF759FE0020FDF756FEE7
:102D0800CA20FDF753FE0020FDF750FED220FDF744
:102D18004DFE0020FDF74AFED820FDF747FE0020B3
:102D2800FDF744FEE020FDF741FE0020FDF73EFEE2
:102D3800F320FDF73BFE0020FDF738FEE220FDF70B
:102D480011FE0520FDF732FE0020FDF72FFE0B20B7
:102D5800FDF72CFE0020FDF729FE1B20FDF726FEBF
:102D68000020FDF723FE3420FDF720FE0020FDF7AC
:102D78001DFE4420FDF71AFE0020FDF717FE4F2028
:102D8800FDF714FE0020FDF711FE6120FDF70EFE91
:102D98000020FDF70BFE7920FDF708FE0020FDF767
:102DA80005FE8820FDF702FE0020FDF7FFFD9720B5
:102DB800FDF7FCFD0020FDF7F9FDA620FDF7F6FD67
:102DC8000020FDF7F3FDB720FDF7F0FD0020FDF72B
:102DD800EDFDC220FDF7EAFD0020FDF7E7FDC72065
:102DE800FDF7E4FD0020FDF7E1FDD120FDF7DEFD54
:102DF8000020FDF7DBFDD620FDF7D8FD0020FDF70C
:102E0800D5FDDD20FDF7D2FD0020FDF7CFFDF32035
:102E1800FDF7CCFD0020FDF7C9FDE320FDF7A2FD7D
:102E28000520FDF7C3FD0020FDF7C0FD0A20FDF7D2
:102E3800BDFD0020FDF7BAFD1C20FDF7B7FD002001
:102E4800FDF7B4FD3320FDF7B1FD0020FDF7AEFD21
:102E58004420FDF7ABFD0020FDF7A8FD5020FDF74D
:102E6800A5FD0020FDF7A2FD6220FDF79FFD0020D3
:102E7800FDF79CFD7820FDF799FD0020FDF796FDF4
:102E88008820FDF793FD0020FDF790FD9720FDF7C2
:102E98008DFD0020FDF78AFDA620FDF787FD0020A7
:102EA800FDF784FDB720FDF781FD0020FDF77EFDCD
:102EB800C220FDF77BFD0020FDF778FDC720FDF758
:102EC80075FD0020FDF772FDD120FDF76FFD002094
:102ED800FDF76CFDD520FDF769FD0020FDF766FDC7
:102EE800DD20FDF763FD0020FDF760FDF320FDF711
:102EF8005DFD0020FDF75AFDE420FDF733FD0120BC
:102F0800FDF754FD0020FDF751FD0120FDF74EFDB2
:102F18000020FDF74BFD0220FDF748FD0020FDF7DE
:102F280045FD2A20FDF742FD0020FDF73FFD3C202E
:102F3800FDF73CFD0020FDF739FD4B20FDF736FD80
:102F48000020FDF733FD5D20FDF730FD0020FDF783
:102F58002DFD7420FDF72AFD0020FDF727FD8420B4
:102F6800FDF724FD0020FDF721FD9320FDF71EFD50
:102F78000020FDF71BFDA220FDF718FD0020FDF73E
:102F880015FDB320FDF712FD0020FDF70FFDBE2053
:102F9800FDF70CFD0020FDF709FDC420FDF706FD37
:102FA8000020FDF703FDCD20FDF700FD0020FDF713
:102FB800FDFCD320FDF7FAFC0020FDF7F7FCDD202F
:102FC800FDF7F4FC0020FDF7F1FCF320FDF7EEFC23
:102FD8000020FDF7EBFCE520FDF7C4FC0020FDF721
:102FE800E5FC0020FDF7E2FC0020FDF7DFFC0020F7
:102FF800FDF7DCFC0220FDF7D9FC0020FDF7D6FC2C
:103008002920FDF7D3FC0020FDF7D0FC3C20FDF77C
:10301800CDFC0020FDF7CAFC4B20FDF7C7FC0020C3
:10302800FDF7C4FC5D20FDF7C1FC0020FDF7BEFCE8
:103038007420FDF7BBFC0020FDF7B8FC8420FDF7E9
:10304800B5FC0020FDF7B2FC9320FDF7AFFC002093
:10305800FDF7ACFCA220FDF7A9FC0020FDF7A6FCBB
:10306800B320FDF7A3FC0020FDF7A0FCBE20FDF770
:103078009DFC0020FDF79AFCC420FDF797FC00207A
:10308800FDF794FCCD20FDF791FC0020FDF78EFCA8
:10309800D320FDF78BFC0020FDF788FCDC20FDF732
:1030A80085FC0020FDF782FCF320FDF77FFC002063
:1030B800FDF77CFCE620FDF755FC1120FDF776FCBA
:1030C8000020FDF773FC3420FDF770FC0020FDF7AD
:1030D8006DFC5620FDF76AFC0020FDF767FC7620A2
:1030E800FDF764FC0020FDF761FC7720FDF75EFC2E
:1030F8000020FDF75BFC6620FDF758FC0020FDF77B
:1031080055FC8820FDF752FC0020FDF74FFC992064
:10311800FDF74CFC0020FDF749FCBB20FDF746FC01
:103128000020FDF743FC9920FDF740FC0020FDF747
:103138003DFC6620FDF73AFC0020FDF737FC5520E2
:10314800FDF734FC0020FDF731FC5520FDF72EFC7F
:103158000020FDF72BFC4520FDF728FC0020FDF79B
:1031680025FC4320FDF722FC0020FDF71FFC44202E
:10317800FDF71CFC0020FDF719FCE720FDF7F2FB2A
:103188003220FDF713FC0020FDF710FC5520FDF759
:103198000DFC0020FDF70AFC7620FDF707FC002057
:1031A800FDF704FC6620FDF701FC0020FDF7FEFB9F
:1031B8006720FDF7FBFB0020FDF7F8FB6720FDF714
:1031C800F5FB0020FDF7F2FB8720FDF7EFFB002061
:1031D800FDF7ECFB9920FDF7E9FB0020FDF7E6FB86
:1031E800BB20FDF7E3FB0020FDF7E0FB9920FDF78E
:1031F800DDFB0020FDF7DAFB7720FDF7D7FB002089
:10320800FDF7D4FB4420FDF7D1FB0020FDF7CEFBF2
:103218005620FDF7CBFB0020FDF7C8FB2320FDF768
:10322800C5FB0020FDF7C2FB3320FDF7BFFB0020E4
:10323800FDF7BCFB4520FDF7B9FB0020FDF7B6FB09
:10324800E820FDF78FFB0020FDF7B0FB0020FDF71D
:10325800ADFB9920FDF7AAFB0020FDF7A7FB87200F
:10326800FDF7A4FB0020FDF7A1FB8820FDF79EFBDE
:103278000020FDF79BFB7720FDF798FB0020FDF76A
:1032880095FB6620FDF792FB0020FDF78FFB882059
:10329800FDF78CFB0020FDF789FBAA20FDF786FBD4
:1032A8000020FDF783FBBB20FDF780FB0020FDF726
:1032B8007DFB9920FDF77AFB0020FDF777FB662060
:1032C800FDF774FB0020FDF771FB5520FDF76EFB41
:1032D8000020FDF76BFB5520FDF768FB0020FDF78C
:1032E80065FB4420FDF762FB0020FDF75FFB4420EF
:1032F800FDF75CFB0020FDF759FB5520FDF756FB59
:103308000020FDF753FBE920FDF72CFBAA20FDF771
:103318004DFB0020FDF74AFB0020FDF747FB00208E
:10332800FDF744FB0020FDF71DFBAA20FDF73EFB3F
:10333800CF20FDF717FB0020FDF738FB0020FDF735
:1033480035FB0020FDF732FB0020FDF72FFB0020A6
:10335800FDF72CFB0020FDF729FB0020FDF726FBDD
:103368000020FDF723FB0020FDF720FB0020FDF7E0
:103378001DFB0020FDF71AFB0020FDF717FB0020BE
:10338800FDF714FB0020FDF711FB0020FDF70EFBF5
:103398000020FDF70BFB0020FDF708FBF020FDF7F0
:1033A800E1FA0020FDF702FB5020FDF7FFFA0020AC
:1033B800FDF7FCFA0020FDF7F9FA0020FDF7F6FA10
:1033C800F320FDF7CFFA0020FDF7F0FAF920FDF71A
:1033D800C9FA0620FDF7EAFA1020FDF7E7FA2920D6
:1033E800FDF7E4FA0020FDF7E1FA3A20FDF7BAFA12
:1033F8005520FDF7DBFA1120FDF7B4FA642003F03D
:1034080087F82920FDF7AEFA3520FDF7ABFA002042
:10341800FDF7CCFA5120FDF7A5FAFF20FDF7C6FA13
:103428005320FDF79FFA2C20FDF7C0FA5520FDF731
:1034380099FA8220FDF7BAFA2C20FDF793FA02F0E8
:10344800A1BC044B9B8845F21052934240F08287FE
:1034580002E000BF3000002055214FF47040FDF716
:103468000DFBAA214FF20100FDF708FB52214FF294
:103478000200FDF703FB08214FF20300FDF7FEFAF7
:1034880001214FF20400FDF7F9FA0D214FF4304005
:10349800FDF7F4FA0D214BF20100FDF7EFFA0D21CB
:1034A8004BF20200FDF7EAFA34214FF43640FDF7FB
:1034B800E5FA34214BF20160FDF7E0FA34214BF2D2
:1034C8000260FDF7DBFA0D214FF43140FDF7D6FA23
:1034D8000D214BF20110FDF7D1FA0D214BF202102C
:1034E800FDF7CCFA34214FF43740FDF7C7FA342101
:1034F8004BF20170FDF7C2FA34214BF20270FDF76E
:10350800BDFA00214FF43240FDF7B8FA00214BF222
:103518000120FDF7B3FA00214BF20220FDF7AEFAC5
:1035280024214FF43840FDF7A9FA24214BF6010075
:10353800FDF7A4FA24214BF60200FDF79FFA0121BA
:103548004FF43F40FDF79AFA0F214FF43340FDF74F
:1035580095FA0F214BF20130FDF790FA0F214BF24B
:103568000230FDF78BFA34214FF43940FDF786FA23
:1035780034214BF60110FDF781FA34214BF6021085
:10358800FDF77CFA08214FF43540FDF777FA08215A
:103598004BF20150FDF772FA08214BF20250FDF789
:1035A8006DFA03214FF44240FDF768FA24214FF4E5
:1035B8003A40FDF763FA24214BF60120FDF75EFA45
:1035C80024214BF60220FDF759FA00214FF43C4024
:1035D800FDF754FA78214BF60140FDF74FFA002128
:1035E8004BF60240FDF74AFA00214FF43D40FDF743
:1035F80045FA78214BF60150FDF740FA00214BF6C9
:103608000250FDF73BFA00214FF43E40FDF736FA31
:1036180064214BF60160FDF731FA00214FF4514067
:10362800FDF72CFA33214DF20110FDF727FA00219E
:103638004DF20210FDF722FA34214DF20310FDF786
:103648001DFA00214DF20410FDF718FA3A214DF247
:103658000510FDF713FA00214DF20610FDF70EFADA
:103668004A214DF20710FDF709FA00214DF2081022
:10367800FDF704FA5C214DF20910FDF7FFF900216E
:103688004DF20A10FDF7FAF981214DF20B10FDF702
:10369800F5F900214DF20C10FDF7F0F9A6214DF2D5
:1036A8000D10FDF7EBF900214DF20E10FDF7E6F9CC
:1036B800E5214DF20F10FDF7E1F901214DF210104F
:1036C800FDF7DCF913214DF21110FDF7D7F90121AF
:1036D8004DF21210FDF7D2F954214DF21310FDF7F7
:1036E800CDF901214DF21410FDF7C8F982214DF2F0
:1036F8001510FDF7C3F901214DF21610FDF7BEF9BB
:10370800CA214DF21710FDF7B9F902214DF2181030
:10371800FDF7B4F900214DF21910FDF7AFF90221B8
:103728004DF21A10FDF7AAF901214DF21B10FDF711
:10373800A5F902214DF21C10FDF7A0F934214DF234
:103748001D10FDF79BF902214DF21E10FDF796F9A9
:1037580067214DF21F10FDF791F902214DF220105B
:10376800FDF78CF984214DF22110FDF787F902212C
:103778004DF22210FDF782F9A4214DF22310FDF736
:103788007DF902214DF22410FDF778F9B7214DF2A9
:103798002510FDF773F902214DF22610FDF76EF999
:1037A800CF214DF22710FDF769F902214DF22810BB
:1037B800FDF764F9DE214DF22910FDF75FF90221CA
:1037C8004DF22A10FDF75AF9F2214DF22B10FDF7B0
:1037D80055F902214DF22C10FDF750F9FE214DF25A
:1037E8002D10FDF74BF903214DF22E10FDF746F988
:1037F80010214DF22F10FDF741F903214DF2301041
:10380800FDF73CF933214DF23110FDF737F903216B
:103818004DF23210FDF732F96D214DF23310FDF7FC
:103828002DF900214FF45240FDF728F933214DF2CC
:103838000120FDF723F900214DF20220FDF71EF9C2
:1038480034214DF20320FDF719F900214DF204202F
:10385800FDF714F93A214DF20520FDF70FF9002183
:103868004DF20620FDF70AF94A214DF20720FDF72F
:1038780005F900214DF20820FDF700F95C214DF211
:103888000920FDF7FBF800214DF20A20FDF7F6F8B4
:1038980081214DF20B20FDF7F1F800214DF20C20AB
:1038A800FDF7ECF8A6214DF20D20FDF7E7F8002111
:1038B8004DF20E20FDF7E2F8E5214DF20F20FDF75D
:1038C800DDF801214DF21020FDF7D8F813214DF253
:1038D8001120FDF7D3F801214DF21220FDF7CEF8A3
:1038E80054214DF21320FDF7C9F801214DF214209F
:1038F800FDF7C4F882214DF21520FDF7BFF801212C
:103908004DF21620FDF7BAF8CA214DF21720FDF73F
:10391800B5F802214DF21820FDF7B0F800214DF25C
:103928001920FDF7ABF802214DF21A20FDF7A6F891
:1039380001214DF21B20FDF7A1F802214DF21C20B8
:10394800FDF79CF834214DF21D20FDF797F8022170
:103958004DF21E20FDF792F867214DF21F20FDF76A
:103968008DF802214DF22020FDF788F884214DF2D0
:103978002120FDF783F802214DF22220FDF77EF881
:10398800A4214DF22320FDF779F802214DF22420DD
:10399800FDF774F8B7214DF22520FDF76FF80221E5
:1039A8004DF22620FDF76AF8CF214DF22720FDF7CA
:1039B80065F802214DF22820FDF760F8DE214DF26E
:1039C8002920FDF75BF802214DF22A20FDF756F871
:1039D800F2214DF22B20FDF751F802214DF22C2057
:1039E800FDF74CF8FE214DF22D20FDF747F8032195
:1039F8004DF22E20FDF742F810214DF22F20FDF751
:103A08003DF803214DF23020FDF738F833214DF20F
:103A18003120FDF733F803214DF23220FDF72EF85F
:103A28006D214DF23320FDF729F800214FF4534062
:103A3800FDF724F833214DF20130FDF71FF800217E
:103A48004DF20230FDF71AF834214DF20330FDF73C
:103A580015F800214DF20430FDF710F83A214DF227
:103A68000530FDF70BF800214DF20630FDF706F89A
:103A78004A214DF20730FDF701F800214DF20830D8
:103A8800FCF7FCFF5C214DF20930FCF7F7FF002141
:103A98004DF20A30FCF7F2FF81214DF20B30FCF7B2
:103AA800EDFF00214DF20C30FCF7E8FFA6214DF2A6
:103AB8000D30FCF7E3FF00214DF20E30FCF7DEFF7E
:103AC800E5214DF20F30FCF7D9FF01214DF21030FE
:103AD800FCF7D4FF13214DF21130FCF7CFFF012181
:103AE8004DF21230FCF7CAFF54214DF21330FCF7A7
:103AF800C5FF01214DF21430FCF7C0FF82214DF2C1
:103B08001530FCF7BBFF01214DF21630FCF7B6FF6C
:103B1800CA214DF21730FCF7B1FF02214DF21830DF
:103B2800FCF7ACFF00214DF21930FCF7A7FF02218A
:103B38004DF21A30FCF7A2FF01214DF21B30FCF7C1
:103B48009DFF02214DF21C30FCF798FF34214DF205
:103B58001D30FCF793FF02214DF21E30FCF78EFF5B
:103B680067214DF21F30FCF789FF02214DF220300A
:103B7800FCF784FF84214DF22130FCF77FFF0221FE
:103B88004DF22230FCF77AFFA4214DF22330FCF7E6
:103B980075FF02214DF22430FCF770FFB7214DF27A
:103BA8002530FCF76BFF02214DF22630FCF766FF4B
:103BB800CF214DF22730FCF761FF02214DF228306A
:103BC800FCF75CFFDE214DF22930FCF757FF02219C
:103BD8004DF22A30FCF752FFF2214DF22B30FCF760
:103BE8004DFF02214DF22C30FCF748FFFE214DF22B
:103BF8002D30FCF743FF03214DF22E30FCF73EFF3A
:103C080010214DF22F30FCF739FF03214DF23030EF
:103C1800FCF734FF33214DF23130FCF72FFF03213D
:103C28004DF23230FCF72AFF6D214DF23330FCF7AC
:103C380025FF00214FF45440FCF720FF33214DF2BB
:103C48000140FCF71BFF00214DF20240FCF716FF74
:103C580034214DF20340FCF711FF00214DF20440DE
:103C6800FCF70CFF3A214DF20540FCF707FF002155
:103C78004DF20640FCF702FF4A214DF20740FCF7DF
:103C8800FDFE00214DF20840FCF7F8FE5C214DF2E4
:103C98000940FCF7F3FE00214DF20A40FCF7EEFE66
:103CA80081214DF20B40FCF7E9FE00214DF20C405A
:103CB800FCF7E4FEA6214DF20D40FCF7DFFE0021E3
:103CC8004DF20E40FCF7DAFEE5214DF20F40FCF70D
:103CD800D5FE01214DF21040FCF7D0FE13214DF224
:103CE8001140FCF7CBFE01214DF21240FCF7C6FE55
:103CF80054214DF21340FCF7C1FE01214DF214404E
:103D0800FCF7BCFE82214DF21540FCF7B7FE0121FD
:103D18004DF21640FCF7B2FECA214DF21740FCF7EF
:103D2800ADFE02214DF21840FCF7A8FE00214DF22D
:103D38001940FCF7A3FE02214DF21A40FCF79EFE43
:103D480001214DF21B40FCF799FE02214DF21C4067
:103D5800FCF794FE34214DF21D40FCF78FFE022142
:103D68004DF21E40FCF78AFE67214DF21F40FCF71A
:103D780085FE02214DF22040FCF780FE84214DF2A1
:103D88002140FCF77BFE02214DF22240FCF776FE33
:103D9800A4214DF22340FCF771FE02214DF224408C
:103DA800FCF76CFEB7214DF22540FCF767FE0221B7
:103DB8004DF22640FCF762FECF214DF22740FCF77A
:103DC8005DFE02214DF22840FCF758FEDE214DF23F
:103DD8002940FCF753FE02214DF22A40FCF74EFE23
:103DE800F2214DF22B40FCF749FE02214DF22C4006
:103DF800FCF744FEFE214DF22D40FCF73FFE032167
:103E08004DF22E40FCF73AFE10214DF22F40FCF700
:103E180035FE03214DF23040FCF730FE33214DF2E0
:103E28003140FCF72BFE03214DF23240FCF726FE11
:103E38006D214DF23340FCF721FE00214FF455402F
:103E4800FCF71CFE33214DF20150FCF717FE002150
:103E58004DF20250FCF712FE34214DF20350FCF7EC
:103E68000DFE00214DF20450FCF708FE3A214DF2F8
:103E78000550FCF703FE00214DF20650FCF7FEFD4D
:103E88004A214DF20750FCF7F9FD00214DF2085088
:103E9800FCF7F4FD5C214DF20950FCF7EFFD002121
:103EA8004DF20A50FCF7EAFD81214DF20B50FCF768
:103EB800E5FD00214DF20C50FCF7E0FDA6214DF286
:103EC8000D50FCF7DBFD00214DF20E50FCF7D6FD3E
:103ED800E5214DF20F50FCF7D1FD01214DF21050B4
:103EE800FCF7CCFD13214DF21150FCF7C7FD012161
:103EF8004DF21250FCF7C2FD54214DF21350FCF75D
:103F0800BDFD01214DF21450FCF7B8FD82214DF2A0
:103F18001550FCF7B3FD01214DF21650FCF7AEFD2C
:103F2800CA214DF21750FCF7A9FD02214DF2185095
:103F3800FCF7A4FD00214DF21950FCF79FFD02216A
:103F48004DF21A50FCF79AFD01214DF21B50FCF777
:103F580095FD02214DF21C50FCF790FD34214DF2E5
:103F68001D50FCF78BFD02214DF21E50FCF786FD1B
:103F780067214DF21F50FCF781FD02214DF22050C0
:103F8800FCF77CFD84214DF22150FCF777FD0221DE
:103F98004DF22250FCF772FDA4214DF22350FCF79C
:103FA8006DFD02214DF22450FCF768FDB7214DF25A
:103FB8002550FCF763FD02214DF22650FCF75EFD0B
:103FC800CF214DF22750FCF759FD02214DF2285020
:103FD800FCF754FDDE214DF22950FCF74FFD02217C
:103FE8004DF22A50FCF74AFDF2214DF22B50FCF716
:103FF80045FD02214DF22C50FCF740FDFE214DF20B
:104008002D50FCF73BFD03214DF22E50FCF736FDF9
:1040180010214DF22F50FCF731FD03214DF23050A5
:10402800FCF72CFD33214DF23150FCF727FD03211D
:104038004DF23250FCF722FD6D214DF23350FCF762
:104048001DFD00214FF45640FCF718FD33214DF2B9
:104058000160FCF713FD00214DF20260FCF70EFD34
:1040680034214DF20360FCF709FD00214DF2046094
:10407800FCF704FD3A214DF20560FCF7FFFC002136
:104088004DF20660FCF7FAFC4A214DF20760FCF796
:10409800F5FC00214DF20860FCF7F0FC5C214DF2C4
:1040A8000960FCF7EBFC00214DF20A60FCF7E6FC26
:1040B80081214DF20B60FCF7E1FC00214DF20C6010
:1040C800FCF7DCFCA6214DF20D60FCF7D7FC0021C3
:1040D8004DF20E60FCF7D2FCE5214DF20F60FCF7C3
:1040E800CDFC01214DF21060FCF7C8FC13214DF204
:1040F8001160FCF7C3FC01214DF21260FCF7BEFC15
:1041080054214DF21360FCF7B9FC01214DF2146003
:10411800FCF7B4FC82214DF21560FCF7AFFC0121DD
:104128004DF21660FCF7AAFCCA214DF21760FCF7A5
:10413800A5FC02214DF21860FCF7A0FC00214DF20D
:104148001960FCF79BFC02214DF21A60FCF796FC03
:1041580001214DF21B60FCF791FC02214DF21C601D
:10416800FCF78CFC34214DF21D60FCF787FC022122
:104178004DF21E60FCF782FC67214DF21F60FCF7D0
:104188007DFC02214DF22060FCF778FC84214DF281
:104198002160FCF773FC02214DF22260FCF76EFCF3
:1041A800A4214DF22360FCF769FC02214DF2246042
:1041B800FCF764FCB7214DF22560FCF75FFC022197
:1041C8004DF22660FCF75AFCCF214DF22760FCF730
:1041D80055FC02214DF22860FCF750FCDE214DF21F
:1041E8002960FCF74BFC02214DF22A60FCF746FCE3
:1041F800F2214DF22B60FCF741FC02214DF22C60BC
:10420800FCF73CFCFE214DF22D60FCF737FC032146
:104218004DF22E60FCF732FC10214DF22F60FCF7B6
:104228002DFC03214DF23060FCF728FC33214DF2C0
:104238003160FCF723FC03214DF23260FCF71EFCD1
:104248006D214DF23360FCF719FC55214FF4704095
:10425800FCF714FCAA214FF20100FCF70FFC5221D5
:104268004FF20200FCF70AFC08214FF20300FCF7AA
:1042780005FC00214FF20400FCF700FCCC214FF4B0
:104288003140FCF7FBFB00214BF20110FCF7F6FB79
:1042980005214FF43640FCF7F1FB70214FF437400D
:1042A800FCF7ECFB70214BF20170FCF7E7FB0121F6
:1042B8004FF43840FCF7E2FB03214BF60100FCF712
:1042C800DDFB03214BF60200FCF7D8FB03214BF67C
:1042D8000300FCF7D3FB02214FF43C40FCF7CEFB74
:1042E80000214BF60140FCF7C9FB00214BF60240C8
:1042F800FCF7C4FBD0214FF44940FCF7BFFB022177
:104308004CF60110FCF7BAFB50214CF60210FCF7F2
:10431800B5FB50214CF60310FCF7B0FB50214CF6CE
:104328000410FCF7ABFB00214FF45450FCF7A6FB3C
:1043380055214FF46850FCF7A1FB4FF48850FCF767
:1043480011FB012002F0E4F84FF42450FCF70AFBBB
:1043580001F018BDEC4B9B8849F22532934240F09E
:10436800D78047F6F001E520FCF788FB4FF4807111
:104378000120FCF783FB4FF4E0610220FCF77EFB91
:1043880041F230010320FCF779FB00210420FCF7FF
:1043980075FB40F202210820FCF770FB0021092080
:1043A800FCF76CFB00210A20FCF768FB00210C20BD
:1043B800FCF764FB00210D20FCF760FB00210F20B7
:1043C800FCF75CFB00211020FCF758FB07211120AB
:1043D800FCF754FB00211220FCF750FB00211320AE
:1043E800FCF74CFB00210720FCF748FB41F29061E9
:1043F8001020FCF743FB40F227211120FCF73EFB7D
:104408009D211220FCF73AFB4FF4C8511320FCF70A
:1044180035FB25212920FCF731FB0D212B20FCF74A
:104428002DFB07213020FCF729FB40F20331312016
:10443800FCF724FB03213220FCF720FB40F2062185
:104448003520FCF71BFB08213620FCF717FB40F250
:1044580006413720FCF712FB4FF441713820FCF776
:104468000DFB07213920FCF709FB40F202613C20D3
:10447800FCF704FB08213D20FCF700FB002150203D
:10448800FCF7FCFAEF215120FCF7F8FA0021522042
:10449800FCF7F4FA40F23F115320FCF7EFFA4FF41F
:1044A80027416020FCF7EAFA01216120FCF7E6FACF
:1044B80000216A20FCF7E2FA00218020FCF7DEFAEE
:1044C80000218120FCF7DAFA00218220FCF7D6FAD5
:1044D80000218320FCF7D2FA00218420FCF7CEFAD1
:1044E80000218520FCF7CAFA10219020FCF7C6FAB3
:1044F8004FF4C0619220FCF7C1FA40F23311072053
:10450800FCF7BCFA22210020FCF7B8FA01F03ABC0B
:104518007D4B9B8849F22832934240F0F78041F264
:104528008F01EC20FCF7AAFA41F23421EF20FCF7C6
:10453800A5FA4FF480710120FCF7A0FA4FF4E0616E
:104548000220FCF79BFA41F230010320FCF796FAAF
:1045580000210420FCF792FA40F202210820FCF71F
:104568008DFA00210920FCF789FA00210A20FCF7BE
:1045780085FA01210C20FCF781FA00210D20FCF7B7
:104588007DFA00210F20FCF779FA00211020FCF7B2
:1045980075FA07211120FCF771FA00211220FCF7A7
:1045A8006DFA00211320FCF769FA01210720FCF7B6
:1045B80065FA322001F0ACFF41F290411020FCF77F
:1045C8005DFA40F227211120FCF758FA322001F059
:1045D8009FFF8A211220FCF751FA322001F098FF40
:1045E8004FF4D0511320FCF749FA06212920FCF793
:1045F80045FA0D212B20FCF741FA322001F088FF03
:1046080000212020FCF73AFA00212120FCF736FA95
:10461800322001F07DFF00213020FCF72FFA40F214
:1046280004613120FCF72AFA40F205313220FCF708
:1046380025FA00213520FCF721FA40F609413620F9
:10464800FCF71CFA4FF401713720FCF717FA40F217
:1046580001313820FCF712FA40F207713920FCF7D3
:104668000DFA00213C20FCF709FA40F60A213D200A
:10467800FCF704FA322001F04BFF00215020FCF730
:10468800FDF9EF215120FCF7F9F900215220FCF740
:10469800F5F940F23F115320FCF7F0F94FF42741A8
:1046A8006020FCF7EBF901216120FCF7E7F9002114
:1046B8006A20FCF7E3F900218020FCF7DFF90021EC
:1046C8008120FCF7DBF900218220FCF7D7F90021D3
:1046D8008320FCF7D3F900218420FCF7CFF90021CF
:1046E8008520FCF7CBF910219020FCF7C7F94FF48F
:1046F800C0619220FCF7C2F940F233110720FCF7A1
:10470800BDF901F03FBB00BF30000020CE4B9B88B5
:1047180049F22032934240F0AD8000210020FCF79E
:10472800ADF94FF480710120FCF7A8F94FF4E0616E
:104738000220FCF7A3F941F230010320FCF79EF9AF
:1047480000210420FCF79AF940F202210820FCF726
:1047580095F900210920FCF791F900210A20FCF7BE
:104768008DF901210C20FCF789F900210D20FCF7B7
:1047780085F900210F20FCF781F9322001F0C8FEED
:1047880040F201110720FCF779F9322001F0C0FE50
:104798004FF486511020FCF771F907211120FCF71E
:1047A8006DF94FF488711220FCF768F94FF4306105
:1047B8001320FCF763F900212920FCF75FF944F284
:1047C80010012B20FCF75AF900215020FCF756F96C
:1047D800EF215120FCF752F900215220FCF74EF945
:1047E80040F23F115320FCF749F94FF41C51602067
:1047F800FCF744F901216120FCF740F900216A2007
:10480800FCF73CF900218020FCF738F900218120D1
:10481800FCF734F900218220FCF730F900218320CD
:10482800FCF72CF900218420FCF728F900218520C9
:10483800FCF724F910219020FCF720F900219220A0
:10484800FCF71CF901219320FCF718F94FF4887143
:104858009520FCF713F900219720FCF70FF90021A8
:104868009820FCF70BF940F273110720FCF706F9C2
:1048780001F088BA744B9B8849F23132934240F078
:10488800E58041F21401E720FCF7F8F84FF4807155
:104898000120FCF7F3F84FF400710220FCF7EEF862
:1048A80041F238010320FCF7E9F840F20221082020
:1048B800FCF7E4F800210920FCF7E0F800210A20C1
:1048C800FCF7DCF800210C20FCF7D8F800210D20BB
:1048D800FCF7D4F800210F20FCF7D0F800211020B5
:1048E800FCF7CCF807211120FCF7C8F800211220AA
:1048F800FCF7C4F800211320FCF7C0F8C82001F029
:1049080007FE41F290611020FCF7B8F840F2272129
:104918001120FCF7B3F8322001F0FAFD0C21122027
:10492800FCF7ACF8322001F0F3FD4FF400611320DE
:10493800FCF7A4F811212920FCF7A0F80B212B2063
:10494800FCF79CF8322001F0E3FD00212020FCF761
:1049580095F840F23F112120FCF790F80021302013
:10496800FCF78CF84FF483713120FCF787F80021AD
:104978003220FCF783F84FF401713520FCF77EF8FC
:1049880041F20A613620FCF779F840F207713720C6
:10499800FCF774F84FF483713820FCF76FF840F295
:1049A80007713920FCF76AF840F202413C20FCF715
:1049B80065F840F60F413D20FCF760F800215020D3
:1049C800FCF75CF8EF215120FCF758F80021522041
:1049D800FCF754F840F23F115320FCF74FF84FF41E
:1049E8001C516020FCF74AF801216120FCF746F8C9
:1049F80000216A20FCF742F800218020FCF73EF8ED
:104A080000218120FCF73AF800218220FCF736F8D3
:104A180000218320FCF732F800218420FCF72EF8CF
:104A280000218520FCF72AF810219020FCF726F8B1
:104A38004FF4C0619220FCF721F840F233110720AF
:104A4800FCF71CF801F09EB930000020E24B9B886F
:104A580045F20842934240F0A3804FF48071012050
:104A6800FCF70CF84FF4E0610220FCF707F841F27C
:104A780030010320FCF702F800210420FBF7FEFFB9
:104A880040F207210820FBF7F9FF00210920FBF776
:104A9800F5FF00210A20FBF7F1FF00210C20FBF7AE
:104AA800EDFF00210D20FBF7E9FF00210F20FBF7A8
:104AB800E5FF142001F02CFD41F2B0611020FBF756
:104AC800DDFF01211120FBF7D9FF01211720FBF79A
:104AD800D5FF4FF49C711220FBF7D0FF4FF4006113
:104AE8001320FBF7CBFF09212920FBF7C7FF09217A
:104AF8002A20FBF7C3FF0021A420FBF7BFFF0021FA
:104B08005020FBF7BBFFEF215120FBF7B7FF002137
:104B18005220FBF7B3FF40F23F115320FBF7AEFFE3
:104B28004FF41C516020FBF7A9FF01216120FBF71E
:104B3800A5FF00216A20FBF7A1FF00218020FBF7D9
:104B48009DFF00218120FBF799FF00218220FBF7C0
:104B580095FF00218320FBF791FF00218420FBF7BC
:104B68008DFF00218520FBF789FF13219020FBF79B
:104B780085FF00219220FBF781FF03219320FBF79B
:104B88007DFF4FF488719520FBF778FF40F2731191
:104B98000720FBF773FF322001F0BAFC01F0F2B8EE
:104BA8008D4B9B8841F20552934240F017810021BA
:104BB8000720FBF763FF322001F0AAFC4FF48E7147
:104BC8001220FBF75BFF0121A420FBF757FF0F2101
:104BD8000820FBF753FF08210A20FBF74FFF0821A5
:104BE8000D20FBF74BFF40F207713020FBF746FF23
:104BF80007213120FBF742FF40F203613220FBF727
:104C08003DFF4FF4E0613320FBF738FF40F202210B
:104C18003420FBF733FF02213520FBF72FFF41F645
:104C28000F713620FBF72AFF40F207713720FBF798
:104C380025FF00213820FBF721FF00213920FBF751
:104C48001DFF40F207713A20FBF718FF00213B20B7
:104C5800FBF714FF07213C20FBF710FF00213D2044
:104C6800FBF70CFF322001F053FC01210720FBF772
:104C780005FF01211720FBF701FF322001F048FC56
:104C88004FF4BD511020FBF7F9FE40F21721112017
:104C9800FBF7F4FE4FF48F711220FBF7EFFE4FF491
:104CA80070611320FBF7EAFE00212A20FBF7E6FEDD
:104CB8000A212920FBF7E2FE4FF49F711220FBF72F
:104CC800DDFE00215020FBF7D9FEEF215120FBF734
:104CD800D5FE00215220FBF7D1FE40F23F115320B0
:104CE800FBF7CCFE4FF41C516020FBF7C7FE0121F7
:104CF8006120FBF7C3FE00216A20FBF7BFFE0021FD
:104D08008020FBF7BBFE00218120FBF7B7FE0021C6
:104D18008220FBF7B3FE00218320FBF7AFFE0021C2
:104D28008420FBF7ABFE00218520FBF7A7FE1321AB
:104D38009020FBF7A3FE4FF440719220FBF79EFEF4
:104D480005219320FBF79AFE00219520FBF796FE9C
:104D580000219720FBF792FE00219820FBF78EFE9A
:104D68004FF480710120FBF789FE4FF4E0610220C7
:104D7800FBF784FE41F238010320FBF77FFE002198
:104D88000420FBF77BFE00210C20FBF777FE0021B7
:104D98000F20FBF773FE00212020FBF76FFE002198
:104DA8002120FBF76BFE21210720FBF767FE14206B
:104DB80001F0AEFB61210720FBF760FE142001F033
:104DC800A7FB40F273110720FBF758FE142001F0EF
:104DD8009FFB00F0D7BF00BF30000020F04B9B883E
:104DE8004BF20552934240F0038100210020FBF76B
:104DF80045FE00210020FBF741FE00210020FBF7C3
:104E08003DFE00210020FBF739FE0121A420FBF71D
:104E180035FE142001F07CFB4FF41C516020FBF799
:104E28002DFE40F202210820FBF728FE4FF4057101
:104E38003020FBF723FE43F215713120FBF71EFEED
:104E480040F204613220FBF719FE40F61661332068
:104E5800FBF714FE42F211213420FBF70FFE4FF44A
:104E6800A8513520FBF70AFE48F207513620FBF718
:104E780005FE41F207413720FBF700FE41F20341EE
:104E88003820FBF7FBFD20213920FBF7F7FD1A211D
:104E98009020FBF7F3FD00211020FBF7EFFD072121
:104EA8001120FBF7EBFD00211220FBF7E7FD0021A5
:104EB8001320FBF7E3FD142001F02AFB4FF4E66111
:104EC8001020FBF7DBFD40F237111120FBF7D6FD70
:104ED800142001F01DFB4FF4DC711220FBF7CEFD0E
:104EE800142001F015FB4FF470611320FBF7C6FD89
:104EF80080212A20FBF7C2FD48212920FBF7BEFDAF
:104F0800142001F005FB4FF480710120FBF7B6FD7A
:104F18004FF4E0610220FBF7B1FD41F238010320B4
:104F2800FBF7ACFD40F202210820FBF7A7FD0021AA
:104F38000A20FBF7A3FD00210C20FBF79FFD0021B1
:104F48000D20FBF79BFD30210E20FBF797FD00217C
:104F58005020FBF793FDEF215120FBF78FFD002137
:104F68005220FBF78BFD40F23F115320FBF786FDE3
:104F78004FF41C516020FBF781FD01216120FBF7F4
:104F88007DFD00216A20FBF779FD11219020FBF7B8
:104F980075FD4FF4C0619220FBF770FD40F20241AD
:104FA8009320FBF76BFD02219420FBF767FD14208B
:104FB80001F0AEFA01210720FBF760FD142001F093
:104FC800A7FA61210720FBF759FD40F2731107206A
:104FD800FBF754FD00212020FBF750FD0021212084
:104FE800FBF74CFD22210020FBF748FD00F0CABE6C
:104FF8006B4B9B884CF20552934240F0D3800021C2
:105008000020FBF73BFD00210020FBF737FD1420B3
:1050180001F07EFA00210020FBF730FD002100207E
:10502800FBF72CFD00210020FBF728FD00210020C4
:10503800FBF724FD0121A420FBF720FD142001F03B
:1050480067FA4FF41C516020FBF718FD40F6060183
:105058000820FBF713FD40F203713020FBF70EFD2B
:1050680001213120FBF70AFD04213220FBF706FD60
:105078004FF481713320FBF701FD4FF44071342068
:10508800FBF7FCFC40F203113520FBF7F7FC1F216E
:105098003620FBF7F3FC40F203713720FBF7EEFCF8
:1050A80001213820FBF7EAFC04213920FBF7E6FC54
:1050B80015219020FBF7E2FC4FF482611020FBF7EA
:1050C800DDFC40F247211120FBF7D8FC4FF4DE71DC
:1050D8001220FBF7D3FC4FF460611320FBF7CEFCE2
:1050E800782001F015FA4FF480710120FBF7C6FC17
:1050F8004FF400710220FBF7C1FC41F2300103209C
:10510800FBF7BCFC08210A20FBF7B8FC00210C20A7
:10511800FBF7B4FC20210E20FBF7B0FC00210F2088
:10512800FBF7ACFC00212020FBF7A8FC0021212084
:10513800FBF7A4FC3D212A20FBF7A0FC142001F07A
:10514800E7F92D212920FBF799FC00215020FBF7D6
:1051580095FC4DF2EF015120FBF790FC0021522005
:10516800FBF78CFC40F23F115320FBF787FC002132
:105178006120FBF783FC00216A20FBF77FFC4FF4DA
:1051880040719220FBF77AFC05219320FBF776FC0F
:105198004FF480710720FBF771FC00F0F3BD00BFEE
:1051A80030000020C24B9B8848F68912934240F099
:1051B800BC8001210020FBF761FC4AF6A401032012
:1051C800FBF75CFC00210C20FBF758FC40F60C01B7
:1051D8000D20FBF753FC4FF42C510E20FBF74EFC2F
:1051E800B0211E20FBF74AFC42F63F310120FBF7B5
:1051F80045FC4FF4C0610220FBF740FC0021102061
:10520800FBF73CFC46F278011120FBF737FC002144
:105218000520FBF733FC00210620FBF72FFC4EF698
:105228001C711620FBF72AFC03211720FBF726FC2C
:1052380040F233210720FBF721FC00210B20FBF76C
:105248001DFC00210F20FBF719FC00214120FBF772
:1052580015FC00214220FBF711FC00214820FBF738
:105268000DFC40F23F114920FBF708FC00214A20C1
:10527800FBF704FC00214B20FBF700FC4FF46F41C7
:105288004420FBF7FBFB00214520FBF7F7FB40F22E
:105298003F114620FBF7F2FB40F207713020FBF785
:1052A800EDFB4FF401713120FBF7E8FB4FF401717E
:1052B8003220FBF7E3FB40F202513320FBF7DEFB21
:1052C80040F207513420FBF7D9FB4FF40171352028
:1052D800FBF7D4FB4FF401713620FBF7CFFB40F20C
:1052E80002513720FBF7CAFB40F202313A20FBF7A4
:1052F800C5FB40F202313B20FBF7C0FB0021232015
:10530800FBF7BCFB00212420FBF7B8FB4FF400415E
:105318002520FBF7B3FB00214F20FBF7AFFB002153
:105328004E20FBF7ABFB00F02DBD614B9B8844F290
:105338003152934240F0BE8001210020FBF79EFBD2
:105348000A2001F0E5F841F228611020FBF796FBEE
:105358000E211220FBF792FB40F639211320FBF7B0
:105368008DFB0A2001F0D4F840211120FBF786FBC1
:1053780050211520FBF782FB0A2001F0C9F81E21F5
:105388001220FBF77BFB0A2001F0C2F84FF4B15161
:105398001020FBF773FB42F639211320FBF76EFB55
:1053A8000A2001F0B5F84FF480710120FBF766FB85
:1053B8004FF440710220FBF761FB41F238010320F2
:1053C800FBF75CFB40F202210820FBF757FB0821A2
:1053D8000A20FBF753FB00213020FBF74FFB40F27C
:1053E80002413120FBF74AFB4FF483713220FBF76F
:1053F80045FB40F203513320FBF740FB4FF4827129
:105408003420FBF73BFB40F201313520FBF736FB3C
:1054180040F207713620FBF731FB40F205313720A7
:10542800FBF72CFB4FF402713820FBF727FB40F603
:105438000B713920FBF722FB02214120FBF71EFBF1
:105448004FF41C516020FBF719FB01216120FBF789
:1054580015FB4FF404719020FBF710FB4FF4857196
:105468009220FBF70BFB04219320FBF707FB4FF47B
:105478008071A020FBF702FB01210720FBF7FEFA51
:1054880021210720FBF7FAFA23210720FBF7F6FA78
:1054980033210720FBF7F2FA40F233110720FBF71C
:1054A800EDFA0021A020FBF7E9FA00F06BBC00BF81
:1054B800300000205B4B9B8844F23552934240F009
:1054C800B38030211520FBF7D9FA10219A20FBF779
:1054D800D5FA20211120FBF7D1FA43F228411020F8
:1054E800FBF7CCFA02211220FBF7C8FA41F2380187
:1054F8001320FBF7C3FA282001F00AF81221122022
:10550800FBF7BCFA282001F003F843F220411020F1
:10551800FBF7B4FA43F238011320FBF7AFFA462041
:1055280000F0F6FF00213020FBF7A8FA40F2024114
:105538003120FBF7A3FA40F207313220FBF79EFA3D
:105548004FF441713320FBF799FA04213420FBF71B
:1055580095FA40F201413520FBF790FA40F20771C5
:105568003620FBF78BFA40F205313720FBF786FA35
:105578004FF4C2613820FBF781FA4FF4C261392039
:10558800FBF77CFA4FF480710120FBF777FA4FF4B0
:1055980040710220FBF772FA41F230010320FBF759
:1055A8006DFA40F608010820FBF768FA08210A207E
:1055B800FBF764FA4FF41C516020FBF75FFA0121F6
:1055C8006120FBF75BFA4FF49F719020FBF756FAC6
:1055D8004FF480719220FBF751FA4FF480719320B9
:1055E800FBF74CFA4FF44051A020FBF747FA102183
:1055F800A320FBF743FA01210720FBF73FFA2121FB
:105608000720FBF73BFA23210720FBF737FA332162
:105618000720FBF733FA40F233110720FBF72EFA85
:10562800B0E300BF30000020A84B9B8841F663120E
:10563800934240F0A783E220FBF794F9A44B4FF480
:1056480080721A61A24B4FF400725A61A14B1D225D
:10565800DA609F4B80225A619D4B80221A619C4BD5
:105668004FF400721A619A4B4FF480721A61984B8A
:105678004FF400725A61974B0222DA60944B8022F1
:105688005A61934B80221A61914B4FF400721A6150
:105698008F4B4FF480721A618D4B4FF400725A6130
:1056A8008C4B0422DA608A4B80225A61884B802214
:1056B8001A61874B4FF400721A61012000F028FF2D
:1056C800E020FBF74FF9824B4FF480721A61804B50
:1056D8004FF400725A617F4B0122DA607C4B8022C2
:1056E8005A617B4B80221A61794B4FF400721A6120
:1056F8000A2000F00DFFE020FBF734F9744B4FF45B
:1057080080721A61724B4FF400725A61714B032216
:10571800DA606F4B80225A616D4B80221A616C4BA4
:105728004FF400721A610C2000F0F2FE0120FBF722
:1057380019F90A2000F0ECFEE620FBF713F9644B98
:105748004FF480721A61624B4FF400725A61614BD8
:105758002F22DA605E4B80225A615D4B80221A61EB
:105768005B4B4FF400721A61594B4FF480721A6107
:10577800574B4FF400725A61564BFF22DA60544B74
:1057880080225A61524B80221A61514B4FF40072A9
:105798001A614F4B4FF480721A614D4B4FF40072EF
:1057A8005A614C4BFF22DA60494B80225A61484BC0
:1057B80080221A61464B4FF400721A61B020FBF741
:1057C800D1F8434B4FF480721A61414B4FF4007289
:1057D8005A61404B2022DA603D4B80225A613C4B93
:1057E80080221A613A4B4FF400721A61384B4FF419
:1057F80080721A61364B4FF400725A61354B0022A1
:10580800DA60334B80225A61314B80221A61304B67
:105818004FF400721A612E4B4FF480721A612C4BB0
:105828004FF400725A612B4B0322DA60284B802216
:105838005A61274B80221A61254B4FF400721A6176
:10584800234B4FF480721A61214B4FF400725A6156
:10585800204B40F21F32DA601D4B80225A611C4BEC
:1058680080221A611A4B4FF400721A61184B4FF4D8
:1058780080721A61164B4FF400725A61154B01225F
:10588800DA60134B80225A61114B80221A61104B47
:105898004FF400721A610E4B4FF480721A610C4B70
:1058A8004FF400725A610B4B40F2DF12DA60084B7A
:1058B80080225A61064B80221A61054B4FF4007210
:1058C8001A61034B4FF4807206E000BF30000020DD
:1058D80000100140000C01401A61A34B4FF4007204
:1058E8005A61A24B0022DA609F4B80225A619E4B7C
:1058F80080221A619C4B4FF400721A61B420FBF7A6
:1059080031F8994B4FF480721A61974B4FF400723B
:105918005A61964B0422DA60934B80225A61924B6B
:1059280080221A61904B4FF400721A618E4B4FF42B
:1059380080721A618C4B4FF400725A618B4B40F2A3
:105948001F42DA60884B80225A61874B80221A6195
:10595800854B4FF400721A61834B4FF480721A61C1
:10596800814B4FF400725A61804B0022DA607E4B03
:1059780080225A617C4B80221A617B4B4FF4007263
:105988001A61794B4FF480721A61774B4FF40072A9
:105998005A61764B2E22DA60734B80225A61724B21
:1059A80080221A61704B4FF400721A616E4B4FF4EB
:1059B80080721A616C4B4FF400725A616B4B002273
:1059C800DA60694B80225A61674B80221A61664B04
:1059D8004FF400721A61644B4FF480721A61624B83
:1059E8004FF400725A61614B0022DA605E4B8022EC
:1059F8005A615D4B80221A615B4B4FF400721A6149
:105A0800594B4FF480721A61574B4FF400725A6128
:105A1800564B0022DA60544B80225A61524B802246
:105A28001A61514B4FF400721A614F4B4FF4807258
:105A38001A614D4B4FF400725A614C4B0022DA60E8
:105A4800494B80225A61484B80221A61464B4FF4D9
:105A580000721A61B620FAF785FF434B4FF4807243
:105A68001A61414B4FF400725A61404B0222DA60CE
:105A78003D4B80225A613C4B80221A613A4B4FF4CD
:105A880000721A61384B4FF480721A61364B4FF42A
:105A980000725A61354B4FF40372DA60324B802240
:105AA8005A61314B80221A612F4B4FF400721A61F0
:105AB8002D4B4FF480721A612B4B4FF400725A61D0
:105AC8002A4B0022DA60284B80225A61264B80221A
